:020000040800F2
:100000000080002089120008C9120008C9120008E7
:10001000C9120008C9120008C91200080000000037
:10002000000000000000000000000000C9120008ED
:10003000C912000800000000C9120008C912000817
:10004000C9120008C9120008C91200080000000007
:1000500000000000C9120008C9120008C9120008F7
:10006000C912000800000000C9120008C9120008E7
:10007000C9120008000000009D100008B910000817
:10008000C9120008C912000800000000C9120008C7
:10009000C91200080000000000000000000000007D
:1000A000000000000000000000000000C91200086D
:1000B000C9120008C9120008C9120008C9120008B4
:1000C0000348044B834202D0034B03B118477047E7
:1000D00034000020340000200000000005480649DC
:1000E0000B1AD90F01EBA301491002D0034B03B146
:1000F0001847704734000020340000200000000042
:1001000010B5064C237843B9FFF7DAFF044B13B15F
:100110000448AFF300800123237010BD3800002095
:10012000000000006031000808B5044B1BB1044911
:100130000448AFF30080BDE80840CFE700000000AE
:100140003C000020603100080C4B01229A600B4BF0
:100150001B6813F0040FFAD0084B4FF48172DA6079
:1001600040F604125A60054B1B6813F0020FFAD0D8
:10017000024B4FF48372DA60704700BF0000024008
:10018000164BDA6942F48042DA615A6A42F08072B0
:100190005A6203F5A02300221A625A629A62DA6256
:1001A0001A635A639A63DA631A665A669A66DA665B
:1001B0005A65DA601A6040F23F625A604CF24F3280
:1001C0009A600222DA609A65054A4FF48041116014
:1001D000DA6842F00102DA60704700BF00000240B6
:1001E00000E100E0154BDA6942F40042DA615A6A34
:1001F00042F000725A6203F5B02300221A625A627A
:100200009A62DA621A635A639A63DA631A665A6602
:100210009A66DA665A65DA601A604F225A6048F2C6
:1002200034229A600222DA609A65054A4FF400414E
:100230001160DA6842F00102DA60704700000240A3
:1002400000E100E086B0002306E03A4951F823209F
:10025000520041F823200133042BF6D9364B1B689A
:1002600013F0040F04D1334A136843F00103136001
:10027000324B1B6813F0400F04D12E4A536843F0F1
:10028000010353602E4B1B6813F0080F04D1294A59
:10029000936843F001039360284B1B6813F0200F11
:1002A00004D1244AD36843F00103D360244B1B6874
:1002B00013F0020F04D11F4A136943F001031361C5
:1002C000002306E0012106AA02EB830242F8141C77
:1002D0000133042B0BD8174A52F823201F2AF1D0E0
:1002E000002106AA02EB830242F8141CF0E7002268
:1002F000134606E006A901EB830151F8141C0A44D9
:100300000133042BF6D982B1012A11D80023042B22
:100310000CD806AA02EB830252F8142C012A01D051
:100320000133F4E70133D8B200E0002006B0704793
:100330000620FBE75800002000800B4000000B4027
:1003400000800C4000B586460A464FF0000C10E0D5
:10035000C02102F8011B013B002B06DB40FA03F130
:1003600011F0010FF4D0F021F3E70CF1010C1FFAAA
:100370008CFCBCF5167F03D21EF80C000723EBE7BC
:100380005DF804FB014B00225A61704758000020C1
:100390002DE9F041224B186802F072FA06460F462A
:1003A000DFF88080D8F8140002F06AFA04460D469F
:1003B00019A3D3E900233046394602F0B5FC0246C2
:1003C0000B462046294602F01FF904460D46024618
:1003D0000B46D8E9060102F04BFB18B100200021C2
:1003E000C8E90601DFF83C80D8E906232046294603
:1003F00002F008F906460F46C8E906452046294698
:1004000002F07AFD10F0FF0F01D1002600273046E0
:100410003946BDE8F08100BF00000000006AE840F6
:100420000000074058000020044A92F8703002EBA8
:1004300083010862013382F8703070475800002051
:10044000002303E00021D15401339BB2B3F5167FA2
:10045000F8D37047D0B506460F461446184602F04A
:100460000FFA00222A4B02F05FFC0022284B02F018
:1004700031FB32463B4602F02DFB02F03DFD5FFAB8
:1004800080FC244B1B7863450FD2224A0021517017
:10049000214991F874200132D2B281F87420052AE2
:1004A00003D90A46002182F87410CCF16402934209
:1004B00002DD184A01215170164A52783AB9634454
:1004C0005FFA83FC134B83F800C000231BE0A3EB0F
:1004D0000C035FFA83FCF5E70F4A92F874100F4A99
:1004E00001EB41015018525C0CFB02F2E2544178DE
:1004F0005A1C0CFB01F1A15481789A1C0CFB01F1F0
:10050000A15403339BB2B3F5167FE5D3D0BD00BF32
:10051000000059400000002058000020502F000823
:100520001A4BDA68DB6813F0010F19D1184A174B20
:10053000DB6813F0040F05D0144B5B68C3F303238F
:1005400003FB0222114BDB68C3F30123012B0DD007
:10055000022B15D033B10F4B49F640429A677047D2
:100560000D4AE4E70B4B0A4A9A677047074BDB6872
:10057000C3F303130133B2FBF3F2064B9A677047E0
:10058000044B4FF400429A67704700BF00000240DE
:1005900000127A005800002000093D0021B1054AF0
:1005A000D3691843D0617047024AD36923EA000037
:1005B000D0617047000002402DE9F04F85B08146C0
:1005C00043680193D0F80880C068D9F81040D9F882
:1005D0001420D9F81870D9F81C3002930D884FF008
:1005E00001164FF0030E4FF0010C0023CDF80C90D4
:1005F000B94606E04FEA4C0C4FEA8E0E7600013306
:100600006D08002D3CD015F0010FF3D0019F27EAB3
:100610000C0A8F789F404AEA0707019728EA0E08DC
:100620000F7A4FEA430A07FA0AF748EA070820EA6E
:100630000C008F7A9F40384324EA0604CF7803F1F8
:10064000100B07FA0BF727430C799C403C4322EA36
:1006500006024F7907FA0BF73A438F799F403A43E6
:1006600029EA0E094F7A07FA0AF749EA0709029FB1
:1006700027EA0C0ACF799F404AEA07070297B9E7B1
:100680004946DDF80C90124B99451DD04FF0FF37CD
:10069000019B3B40C9F8043008EA0703C9F8083059
:1006A0003840C9F80C003C40C9F810403A40C9F83D
:1006B00014200B463B40C9F81830029B3B40C9F858
:1006C0001C3005B0BDE8F08F6FF01F07E0E700BFFA
:1006D00000000B4010B584B001248DF80C408DF85B
:1006E0000E406023ADF8043021464FF48000FFF740
:1006F00055FF01A90E48FFF75FFF0423ADF8043052
:1007000021464FF40000FFF749FF01A90948FFF710
:1007100053FF0A23ADF8043021464FF00070FFF775
:100720003DFF01A90448FFF747FF04B010BD00BF1B
:1007300000000B4000800B4000800C400023036051
:1007400043600361436143620323036270474B8844
:1007500003610A888B7903EB0223CA7913440A7A6E
:1007600013444A79134403604B7A0A791344436073
:1007700070470023037107224271C37183710372B2
:100780000222428003804372704721B1436843F0E4
:10079000020343607047436823F002031B041B0CF1
:1007A000436070478160704710B500240AE0074B32
:1007B000DB6813F0010FFAD0054B195D0348FFF712
:1007C000F1FF0134B4F5965FF1D310BD00000A408B
:1007D0004C0300200B4BDB6A0B4A904205D00B4ABE
:1007E000904208D0074AD362704723F0FF0343F0DA
:1007F00080730B43F6E723F47F4343F0007343EA2F
:100800000123EFE7000002400000044000000A401E
:10081000F0B587B001214FF48010FFF7BFFE012132
:100820004FF08070FFF7BAFE00248DF803400126D8
:100830008DF804608DF805408DF806408DF807406E
:1008400003238DF809308DF80A6002278DF80870AF
:100850006023ADF8003069461248FFF7ADFE124D37
:100860002846FFF76BFF31462846FFF7B3FF03A882
:10087000FFF77FFFADF80C70ADF80E708DF81040EB
:1008800007238DF811308DF814408DF8154003A919
:100890002846FFF75CFF31462846FFF776FF07B092
:1008A000F0BD00BF00000C4000000A402DE9F04FF1
:1008B00083B006460F4615469DF83040184601F0B5
:1008C000EFFF32463B4602F005F97BA3D3E9002354
:1008D00002F02AFA804689467B4ED6E9202301F0B1
:1008E00093FEC6E92001794ED6E9022340464946E7
:1008F00001F08AFEC6E90201D6E9042340464946D2
:1009000001F082FEC6E9040108E00022704B404677
:10091000494601F077FE6C4BC3E920016A4BD3E9ED
:10092000208900226A4B4046494602F0A1F800287F
:10093000EBD108E00022664B3046394601F062FEFA
:10094000624BC3E90201614BD3E902670022604BAD
:100950003046394602F08CF80028EBD108E000223E
:100960005B4B5046594601F04DFE584BC3E904011C
:10097000564BD3E904AB0022554B5046594602F082
:1009800077F80028EBD1534BA3FB04235B080093BB
:100990004BA3D3E900234046494602F09BF800F000
:1009A00013FD80468946009801F07AFF42464B4687
:1009B00002F090F8CDE90001600801F071FF804677
:1009C000894602460B46DDE9000101F01DFECDE936
:1009D00000013BA3D3E900233046394602F07AF800
:1009E00000F0F2FC06460F46204601F059FF324661
:1009F0003B4602F06FF802460B464046494601F07E
:100A000003FE06460F462EA3D3E90023504659465F
:100A100002F060F800F0D8FC02460B46404649461A
:100A200002F058F802460B464046494601F0ECFDFC
:100A30008046894600220023DDE9000101F0FAFF2B
:100A400078B9002200233046394601F0F3FF68B937
:100A5000002200234046494601F0ECFF48B900243B
:100A600023E000230024CDE90034EAE70026002734
:100A7000EEE74FF000084FF00009F0E7DDE9000174
:100A800002F03AFA285504F1010A3046394602F0DC
:100A900033FA05F80A0004F1020A4046494602F01A
:100AA0002BFA05F80A000334A4B2B4F5167FE5D397
:100AB00003B0BDE8F08F00BF0000000000C072402E
:100AC000182D4454FB21194058000020000000203C
:100AD0000000F03FABAAAAAA2DE9F04E8AB0044666
:100AE0000D4691469DF848A0184601F0D9FE2246D1
:100AF0002B4601F0EFFFB2A3D3E9002302F014F973
:100B000004460D46B24E02460B46D6E9220101F0DC
:100B10007BFDC6E92201AF4E22462B46D6E90601EF
:100B200001F072FDC6E9060122462B46D6E908010E
:100B300001F06AFDC6E9080108E00022A64B304634
:100B4000394601F05FFDA24BC3E92201A04BD3E976
:100B500022670022A04B3046394601F089FF002869
:100B6000EBD108E000229C4B2046294601F04AFDCB
:100B7000984BC3E90601974BD3E906450022964BF3
:100B80002046294601F074FF0028EBD1CDE900454D
:100B900008E00022904B2046294601F033FD8D4BA2
:100BA000C3E908018B4BD3E9084500228A4B204654
:100BB000294601F05DFF0028EBD1884BA3FB0A3BDF
:100BC0004FEA5B0B80A3D3E900233046394601F09E
:100BD00081FF00F0F9FB06460F46584601F060FE23
:100BE00032463B4601F076FFCDE902014FEA5A005A
:100BF00001F056FE06460F4602460B46DDE90201AD
:100C000001F002FDCDE904016FA3D3E90023DDE982
:100C1000000101F05FFF00F0D7FBCDE90001504675
:100C200001F03EFEDDE9002301F054FF02460B46D1
:100C30003046394601F0E8FCCDE9060162A3D3E96C
:100C400000232046294601F045FF00F0BDFB024687
:100C50000B463046394601F03DFF02460B46304612
:100C6000394601F0D1FCCDE9080100220023DDE97D
:100C7000040101F0DFFE88B900220023DDE906014E
:100C800001F0D8FE78B900220023DDE9080101F067
:100C9000D1FE68B94FF0000B5F4648E00023002406
:100CA000CDE90434E8E700230024CDE90634EAE77F
:100CB00000230024CDE90834ECE790FBFAF30AFBAB
:100CC0001300AAEB000001F0EBFDCDE900014AE0C2
:100CD00090FBFAF30AFB1300AAEB000001F0E0FD21
:100CE000CDE9020153E090FBFAF30AFB1300AAEBF3
:100CF000000001F0D5FD04460D46DDE9000102F0DB
:100D0000FBF809F80B000BF10106DDE9020102F026
:100D1000F3F809F806000BF102062046294602F016
:100D2000EBF809F806000BF1030B1FFA8BFBBBF580
:100D3000167F41D20137BFB2384601F0B1FD0446FB
:100D40000D46DDE9042301F05FFC02F0D5F880B226
:100D500090FBFAF313F0010FAFD10AFB130001F07F
:100D60009FFDCDE90001DDE906232046294601F07B
:100D70004BFC02F0C1F880B290FBFAF313F0010FC4
:100D8000A6D10AFB130001F08BFDCDE90201DDE9DC
:100D900008232046294601F037FC02F0ADF880B266
:100DA00090FBFAF313F0010F9DD10AFB130001F041
:100DB00077FD04460D46A0E70AB0BDE8F08E00BFFF
:100DC0000000000000C07240182D4454FB2119405F
:100DD00058000020000000200000F03FABAAAAAAA3
:100DE0002DE9F04782B0CDE9000114461E469DF87A
:100DF00028500022864B8749D1E9240101F038FEB2
:100E000070B1844B012283F8982000208049C3E907
:100E1000240193F899301BB1013B7E4A82F8993046
:100E2000002200237B49D1E9240101F003FE0028C0
:100E300065D1784B93F89930002B71D1754BD3E97C
:100E4000248993F89870B7FA87F77F094FF0010A61
:100E500069A3D3E900234046494601F009FE08B9D9
:100E60004FF0000A17EA0A0F11D06A4B012283F8EB
:100E70009820694B93F828302BB96649B1F89A202D
:100E80005200A1F89A200133634A82F82830614B5E
:100E900093F89870012F14BF002701274FF0010A23
:100EA00057A3D3E900234046494601F0C3FD08B9E2
:100EB0004FF0000A17EA0A0F11D0564B002283F8B0
:100EC0009820554B93F828302BB95249B1F89A2005
:100ED0005200A1F89A2001334F4A82F828304E4B35
:100EE00093F82830032B1ED94A4B072283F8992008
:100EF000494A002182F82810A3F89A6013E0454B74
:100F0000002283F8982000200021C3E9240193F8EF
:100F10009930002B8DD0013B3E4A82F8993088E70A
:100F20003C4BA3F89A603B4B93F8983013BB394E77
:100F3000B6F89A0001F0B4FCDDE9002301F0CAFD27
:100F400031A3D3E9002301F0EFFE02460B46D6E9B8
:100F5000240101F059FBC6E9240100222F4B2D4941
:100F6000D1E9240101F0B6FD00F0B2F901F08AFDEB
:100F7000002326E0274EB6F89A0001F091FCDDE947
:100F8000002301F0A7FD20A3D3E9002301F0CCFE4C
:100F900002460B46D6E9240101F034FBC6E92401E0
:100FA000DBE7002A1DDD03EB43011D4E31440E7DBE
:100FB000A654561C4F7DA7550232897DA15401339A
:100FC0009BB2092B12D81A1802EB4202B2F5167F17
:100FD000E7DB002284F8552284F8565284F8572221
:100FE000EDE7002222706570A270E8E702B0BDE86C
:100FF000F08700BFAFF300809A9999999999E93FDA
:10100000333333333333E33F0000000000C062402A
:101010000000F03F58000020000000200000694060
:10102000502F00082DE9F04383B006460F461546C1
:1010300098469DF82890094CA4FB09C464080094C4
:10104000FFF7FEF9CDF8009043462A463046394670
:10105000FFF7C6FE03B0BDE8F08300BFABAAAAAAA3
:101060002DE9F04383B006460F4690461D469DF895
:101070002890094CA4FB0934640800946B08FFF71E
:101080002BFDCDF800902B46424630463946FFF7FF
:10109000A7FE03B0BDE8F083ABAAAAAA044A536D29
:1010A00023F002035365034A5369013353617047C8
:1010B000000007405800002070B582B00E4A536D02
:1010C00023F0020353650D4C94F8713004EB830355
:1010D0001E6AFFF75DF904F19C0564230093B4F8E0
:1010E00072302A46B04706492846FFF72BF9FFF72A
:1010F0005BFB02B070BD00BF0080074058000020BD
:101100004C03002008B5002300E00133494A934214
:10111000FBD9FFF719F8FFF77BFB474B002483F857
:10112000714083F870406422A3F87220FFF7D2FA6E
:101130004248FFF779F94248FFF776F94148FFF74F
:1011400073F94148FFF770F94048FFF76DF9FFF771
:1011500017F8FFF747F827E034B93D4B4FF400424A
:10116000C3F8802004461FE0FFF70CF9384B4FF41A
:1011700000421A60002417E0354B4FF40042C3F8D8
:1011800080202D4A92F871300133DBB282F8713041
:1011900092F87020934203D3274B002283F87120EA
:1011A0002B4B4FF400421A60FFF74CF8431E042B00
:1011B000FAD801A252F823F0591100087911000859
:1011C000CD110008091200081F120008204B4FF42F
:1011D0000042C3F88020184B93F8713053B9164A77
:1011E00092F87030013B82F87130194B4FF4004295
:1011F0001A60D9E7104A92F87020012AF5D9013B0C
:101200000D4A82F87130F0E70B4BB3F87230B3F54A
:10121000C87FC9D21433084AA2F87230C4E7064B1B
:10122000B3F87230142BBFD9143B034AA2F87230C2
:10123000BAE700BFBFC62D005800002025100008E7
:1012400061100008D90A0008AD080008550400081C
:1012500000E100E008B50A4B4FF000629A60094BCC
:101260001032DA61DA680022DA6059685A609968E7
:101270009A6019691A6159695A61FFF751F908BDF5
:1012800000ED00E0000002400A490B4A0B4B9A4275
:10129000BEBF51F8040B42F8040BF8E70849094AAD
:1012A00000209142BCBF41F8040BFAE7FFF7D2FFE0
:1012B000FFF728FF64310008000000203400002000
:1012C000380000200C160020FEE700BF00000000E0
:1012D000C1F30A52F8B5A2F2FF35132D0B4684462E
:1012E0000C46064630DC002D1EDB354F2F4101EA4F
:1012F0000702024315D030A3D3E9002301F084F99B
:101300000022002301F0B4FB48B1002C04DA4FF4B2
:10131000801343FA05F52C44002624EA07042346EB
:10132000B44660461946F8BD23A3D3E9002301F073
:101330006BF90022002301F09BFB0028EFD0002C6A
:1013400024DB00263446EAE7332D08DDB5F5806F4F
:10135000E7D1024601F058F984460B46E1E74FF029
:10136000FF37A2F21342D7400742DAD012A3D3E9E3
:10137000002301F049F90022002301F079FB002845
:10138000CDD0002C0BDB26EA0706C8E724F000438B
:101390000C4A1E43002E18BF14460026BFE7142D2A
:1013A00008D00123C5F1340503FA05F5AE1928BFAD
:1013B000E418E8E70134E6E79C7500883CE4377EF2
:1013C000FFFF0F000000F0BF10B5294C21F00043D3
:1013D000A34286B020DD274A934209DD02460B4630
:1013E00001F010F902460B461046194606B010BD32
:1013F00002AA00F041F800F00300012818D00228EA
:101400002AD0F0B1DDE90423DDE9020100F060FA41
:10141000024601F10043E7E7002400220023009484
:1014200000F0A6FF02460B461046194606B010BD56
:10143000DDE90423DDE9020100F04AFA02460B4629
:10144000D2E70124DDE90423DDE90201009400F084
:101450008FFF02460B46C7E70124DDE90423DDE9DF
:101460000201009400F084FF024601F10043BBE753
:10147000FB21E93FFFFFEF7F2DE9F04FDFF838C296
:1014800021F000456545064614468FB040F385803F
:101490008A4A0F46954226DC7DA3D3E90023002922
:1014A00040F3C08101F0AEF8854B80469D428946ED
:1014B00000F08A8078A3D3E9002301F0A3F8024664
:1014C0000B464046C4E90023494601F09BF872A34D
:1014D000D3E9002301F096F80126C4E90201304661
:1014E0000FB0BDE8F08F774A954240F38D80764A81
:1014F00095425FDC4FEA2558A8F21648A5EB085143
:101500008B4601F0BFFA01F0CBF902460B4630469C
:101510005946CDE9082301F075F800226B4B01F024
:10152000D9FA8B46824601F0ADFA054601F0B8F9CA
:1015300002460B4650465946CDE90A2301F062F8AF
:101540000022624B01F0C6FA02460B46CDE90C239D
:101550000022002301F064FA002800F06181002DD0
:101560000CBF01230223022559494246019108A8D4
:101570002146009500F0D4FA002F0646AFDAD4E9F0
:10158000000505F10041C4E90001E168A26801F12C
:101590000043C4E902237642A1E700264FF0000889
:1015A0004FF00009C2E900013046C2E902890FB0DC
:1015B000BDE8F08F02460B4601F024F80026C4E98E
:1015C0000201C4E900018AE735A3D3E9002301F051
:1015D00019F835A3D3E900238046894601F012F8B3
:1015E00002460B464046C4E90023494601F00AF88A
:1015F0002DA3D3E9002301F005F80126C4E9020177
:1016000030460FB0BDE8F08F00F074FF28A3D3E997
:1016100000238046894601F05DFA00222D4B00F040
:10162000F3FF01F02FFA064601F03AF918A3D3E9C7
:10163000002382468B46CDE904AB01F04BFA02460B
:101640000B464046494600F0DDFF13A3D3E90023D3
:10165000CDE902015046594601F03CFA1F2E804662
:1016600089463BDC1C4B721E53F82230AB4235D00E
:1016700002460B46DDE9020100F0C4FF02460B46BC
:1016800082468B46C4E90023AEE000BFAFF3008082
:1016900000004054FB21F93F3163621A61B4D03D30
:1016A0000000601A61B4D03D7370032E8A19A33B09
:1016B00083C8C96D305FE43FFB21E93F7BD902401D
:1016C000FB21F93FFB213941FFFFEF7F0000704113
:1016D000043000080000E03F842F00082B1507931A
:1016E0004246DDE902014B4600F08CFFC1F30A538C
:1016F000C3EB1555102D8B46824671DD68A3D3E9E7
:101700000023DDE9040101F0E5F9DDE902AB8046E3
:10171000894642464B465046594600F073FF024602
:101720000B465046594692469B4600F06BFF424698
:101730004B4600F067FF5CA3D3E90023804689464F
:10174000DDE9040101F0C6F942464B4600F05AFFBC
:10175000804689465046594642464B46CDE902AB43
:1017600000F050FF079AC1F30A53D31A312B8B466E
:10177000824635DD4EA3D3E90023DDE9040101F003
:10178000A9F9DDE902AB8046894642464B46504600
:10179000594600F037FF02460B46504659469246DE
:1017A0009B46CDE902AB00F02DFF42464B4600F0D0
:1017B00029FF41A3D3E9002380468946DDE90401DE
:1017C00001F088F942464B4600F01CFF80468946EE
:1017D0005046594642464B4600F014FF8B4682461F
:1017E00052465B46C4E90023DDE9020152465B46EE
:1017F00000F008FF42464B4600F004FF02460B464D
:10180000002FC4E90223BFF66AAE0BF1004301F1D9
:101810000041A0606360E1607642C4F800A05EE62B
:101820000323A0E600F0F0FE274B80469D42894648
:1018300016D023A3D3E9002300F0E6FE02460B46B0
:101840004046C4E90023494600F0DCFE1CA3D3E96E
:10185000002300F0D9FE4FF0FF36C4E902013EE656
:101860000FA3D3E9002300F0CFFE0FA3D3E9002399
:101870008046894600F0C8FE02460B464046C4E951
:101880000023494600F0BEFE07A3D3E9002300F081
:10189000BBFE4FF0FF36C4E9020120E6AFF3008043
:1018A0000000601A61B4D03D7370032E8A19A33B07
:1018B0000000002E8A19A33BC14920259A837B3959
:1018C0003163621A61B4D03DFB21F93F0000000092
:1018D0002DE9F04F21F00046B6F1795F92469B4624
:1018E0000C46054685B06DDA01F0CCF8002800F012
:1018F000EB802A4623462846214601F0EBF876A3E2
:10190000D3E900238046894601F0E4F874A3D3E9C3
:10191000002300F079FE42464B4601F0DBF872A34B
:10192000D3E9002300F06EFE42464B4601F0D2F8A8
:101930006FA3D3E9002300F067FE42464B4601F057
:10194000C9F86DA3D3E9002300F05CFE42464B4684
:1019500001F0C0F86AA3D3E9002300F055FE424627
:101960004B4601F0B7F8CDE9000100224046494658
:10197000654B01F0AFF8DDE9002306460F4640460F
:10198000494601F0A7F8A846A14652465B460446E0
:101990000D464046494601F09DF802460B4620465A
:1019A000294600F02FFE02460B463046394600F02D
:1019B00029FE02460B460020544900F023FE05B0E4
:1019C000BDE8F08F02460B4601F084F842A3D3E94C
:1019D00000238046894601F07DF841A3D3E9002326
:1019E00000F012FE42464B4601F074F83EA3D3E9E4
:1019F000002300F007FE42464B4601F06BF83CA383
:101A0000D3E9002300F000FE42464B4601F062F8A5
:101A100039A3D3E9002300F0F5FD42464B4601F01F
:101A200059F837A3D3E9002300F0EEFD4B464246B8
:101A300001F050F8364BCDE900019E4295DD354B63
:101A400000229E423ADCA6F5001300202F491646DC
:101A50001F4600F0D7FDCDE902010022404649466D
:101A6000294B01F037F832463B4600F0CBFDDDE96B
:101A7000002306460F464046494601F02BF8A8468B
:101A8000A14652465B4604460D464046494601F093
:101A900021F802460B462046294600F0B3FD0246D7
:101AA0000B463046394600F0ADFD02460B46DDE9F7
:101AB000020100F0A7FD05B0BDE8F08F164B00262F
:101AC000CDE90223154FC8E70020104905B0BDE855
:101AD000F08F00BFAFF30080D43888BEE9FAA8BD0C
:101AE000C4B1B4BD9EEE213EAD529C804F7E923E6D
:101AF0009015CB19A001FA3E7751C1166CC1563F23
:101B00004C5555555555A53F0000E03F0000F03FAE
:101B10003233D33F0000E93F0000E73F0000D23FEF
:101B20002DE9F04FADF5197DB84CA29D089354F8FE
:101B30002540013B12F1140F074605940B910393C6
:101B4000C0F24283B249D31E81FB0301DB17C3EB12
:101B5000A10307930133A3EB8303DB00D3180693A0
:101B6000079A039BD61A059A12EB03091BD409F1B5
:101B7000010900240025DDF88CA2B1440DF1800894
:101B800008E05AF8260000F08BFE01364E45E8E8E2
:101B9000020108D0002EF4DA2046294601364E45CF
:101BA000E8E80201F6D1059B002BC0F2BC83089B3C
:101BB00020AA02EBC30ADA000292059AA7F10801F3
:101BC0001A44DDF80C9004910DF5E07B019201EBD5
:101BD000C308039B002BC0F2AE81574600240025AA
:101BE000049E77E90223F6E9020100F073FF024642
:101BF0000B462046294600F007FD464504460D46A3
:101C0000EFD1019B09F101099945EBE802450AF181
:101C1000080ADED1049BDDF808B00BAA9B44059BA3
:101C200002EB83020A920CAA019302EB8303083BA6
:101C30000993019A98AB03EBC203002A53E92845A4
:101C400029DD0DF5E07A0DF130090AEBC20800221A
:101C5000704B2046294600F03DFF00F013FF00F0D6
:101C60001FFE00226C4B06460F4600F033FF024673
:101C70000B462046294600F0C5FC00F003FF78E93A
:101C8000022349F8040B3946304600F0BDFCD0452C
:101C900004460D46DBD1DDF81890204629464A4619
:101CA00000F02EFC00224FF07F5304460D4600F05A
:101CB00011FFFFF70DFB0022584B00F00BFF02460F
:101CC0000B462046294600F09DFC0D46044600F0D8
:101CD000D9FE804600F0E4FD0B4602462946204628
:101CE00000F090FC4B46002B06460F4640F39880D0
:101CF000019A0CA9013A51F82250C9F1180345FA8A
:101D000003F101FA03F3ED1A0CAB43F82250C9F1C9
:101D100017031D41002D884400F38C80002200230E
:101D20003046394600F07CFE002800F05482019BCA
:101D3000059A03F1FF3A524510DC002203F180437B
:101D4000013B0CA90A9801EB830353F80419834261
:101D500042EA0102F9D1002A40F0F080059B0CAA6A
:101D6000013B52F82330002B40F0E0800123099A18
:101D700052F8041901330029FAD0019AD3180293BA
:101D8000531C9946DDF80480089A9044079A02EBA8
:101D9000030A0AF1804AA39A0AF1FF3A02EB8A0A7F
:101DA00020AA02EBC80870AA02EBC30301935AF8F9
:101DB000040F00F075FD039B4746002B08F108084F
:101DC00048E902011FDB00240025049E083F01E0D2
:101DD00077E80201F6E9022300F07CFE02460B469A
:101DE0002046294600F010FC5E4504460D46EFD122
:101DF000019B09F10109E3E802450193029B994522
:101E0000D5DD019315E700240025F1E71031000826
:101E1000ABAAAA2A0000703E0000704100002040DA
:101E20006BD1019B0CAA013B52F82350ED15002DFC
:101E30007FF774AF019B08F10108002B40F3C981C3
:101E40000C9C002C51D1019B012B20D001220CAB0A
:101E500053F8044F002C4BD0531C0CA9C4F18074D0
:101E600041F822400199994210DD0CAC0CAA52F8BD
:101E700023206FF07F4004EB830304EB810100E03B
:101E80001A68821A43F8042B8B42F9D10124069B6D
:101E9000002B0EDD012B00F08C81022B09D1019B60
:101EA0000CA95A1E0CAB53F82230C3F3150341F8AA
:101EB0002230022D7FF432AF32463B4600207A4971
:101EC00000F0A0FB06460F46002C3FF427AF069A11
:101ED0000020754900F014FB02460B463046394697
:101EE00000F090FB06460F4618E701230022B4E7F6
:101EF000019901328A42ABD1C9E700226B4B00F055
:101F0000ADFD054600283FF409AF019B08F101082B
:101F1000002BC8BF022593DC32463B4600206249B5
:101F200000F070FB022506460F46F7E6019B0133E1
:101F30009946029326E70024002562E6069B039556
:101F4000A3F118020CAB53F82A30CDF81C8006928E
:101F500073B9019B0CA903F18043023B01EB83039E
:101F600053F804190AF1FF3A183A0029F8D00692FA
:101F70000020069A4C4900F0C3FABAF1000F04465B
:101F80000D46C0F2D7814FF0000870AB03EBCA0BCF
:101F90000CAA0AF10103069302EB8306DFF8109105
:101FA0004FEACA0304930BF1080756F8040D00F03A
:101FB00077FC22462B4600F08DFD4B4667E9020177
:101FC00042462046294600F085FD0CAB9E42044661
:101FD0000D46EAD148ABCDE9013ADDF814A04FF047
:101FE0000009BAF1000F2CDB2DA3D3E900235F46D3
:101FF000002600240025DFF8BC8003E0B14510DB9B
:10200000F8E80223F7E8020100F064FD02460B46FF
:102010002046294600F0F8FA0136B24504460D463E
:10202000ECDA019B029A03EBC9039145C3E9004531
:10203000ABF1080B09F1010306D0BAF1000F994684
:10204000D2DA00240025ECE7A29BDDF808A0022BE1
:1020500032DC002B00F3F28018D1A29B049D1C46B9
:10206000019E08353544184675E90223214600F0E3
:10207000CBFAAE4203460C46F5D1039A0AB104F1FD
:102080000044184621460B9BC3E90001079B03F05F
:1020900007000DF5197DBDE8F08F00BFAFF300809C
:1020A00000000040FB21F93F0000F03F0000E03F4E
:1020B0000000703E28310008A29B032BE6D1BAF144
:1020C000000F00F04D81019B049A13449B46D3E915
:1020D00000455BE902672046294632463B4600F050
:1020E00093FAA046A94604460D4622462B463046A2
:1020F000394600F087FA4B46424600F085FACBE9B4
:1021000000016BE90245019B5B45E2D1BAF1010F89
:1021100040F32681049B019A0DF5947B13449A4663
:10212000D3E9004502935AE9026720462946324620
:102130003B4600F069FAA046A94604460D462246F1
:102140002B463046394600F05DFA42464B4600F0D9
:102150005BFACAE900016AE90245D345E3D10023ED
:102160001E46029C019A083402F11005184674E9D3
:102170000223314600F048FAA54203460E46F5D147
:10218000039A002A40F0A480184631460B9C019B1C
:10219000C4E90401D3E90223C4E90223DDE94823A9
:1021A000C4E90023079B03F007000DF5197DBDE886
:1021B000F08F019B0CA95A1E0CAB53F82230C3F3CD
:1021C000160341F8223074E600216FF017030791DF
:1021D000C4E400245BE6069C30463946624203951F
:1021E000CDF81C8000F08CF900225F4B06460F46AC
:1021F00000F034FC002861D000225C4B18343046DB
:102200003946069400F066FC00F03CFC044600F001
:1022100047FB0022544B00F05DFC0B46024639465A
:10222000304600F0EFF900F02DFC019D0CAB05F1FC
:10223000010A43F8250043F82A4099E6002634466F
:10224000019F069B07EBC305304675E90223214633
:1022500000F0DAF9AF4206460C46F5D1039B002B9D
:1022600050D13046214623460B9C3246C4E900013A
:10227000DDE9480100F0C6F9BAF1000F03460E4649
:1022800010DD012448AD1846F5E90223314600F07F
:10229000BBF90134A24503460E46F4DA039A0AB1AB
:1022A00006F10046184631460B9BC3E90201079B25
:1022B00003F007000DF5197DBDE8F08F3046394673
:1022C00000F0E0FB019B0CAA9A4642F823004FE67F
:1022D0000B9D019C06F100466E6126462068A268AF
:1022E00064682B6104F10041F468C5E9000104F160
:1022F0000043C5E90223079B03F007000DF5197D94
:10230000BDE8F08F0B9804F1004106603246234689
:102310004160DDE9480100F075F9BAF1000F0346AC
:102320000E46AEDCBCE7A7F108030493089BDB0074
:1023300002936FE4A29B022B06DC002B0DDC7FF4E2
:10234000A5AEA29B1C4698E6A29B032B7FF49EAEF3
:10235000002348AA1E46019212E7002634467DE774
:1023600000231E460CE700BF000070410000703ED5
:102370002DE9F04F85B0CDE9022321F00043B3F100
:10238000795F8246019104DA00F07CFB002800F0BE
:102390008E80019B52461946504600F09BFB044636
:1023A0000D46019B2246194650462B4600F092FBF3
:1023B00043A3D3E9002306460F462046294600F0F2
:1023C00089FB41A3D3E9002300F01CF922462B46E8
:1023D00000F080FB3EA3D3E9002300F015F922466C
:1023E0002B4600F077FB3CA3D3E9002300F00AF969
:1023F00022462B4600F06EFB39A3D3E9002300F000
:1024000003F90E9B80468946BBB3DDE90201002239
:10241000374B00F05FFB42464B46804689463046CC
:10242000394600F057FB02460B464046494600F04D
:10243000E9F822462B4600F04DFBDDE9022300F0CF
:10244000E1F829A3D3E9002304460D463046394676
:1024500000F040FB02460B462046294600F0D4F827
:1024600002460B465046019900F0CCF882468B4656
:102470005046594605B0BDE8F08F02460B4620464F
:10248000294600F027FB18A3D3E9002300F0BAF88F
:1024900032463B4600F01EFB5246019B00F0B4F86A
:1024A00082468B465046594605B0BDE8F08FDDF8B0
:1024B00004B05046594605B0BDE8F08FAFF3008038
:1024C0007CD5CF5A3AD9E53DEB9C2B8AE6E55A3EBE
:1024D0007DFEB157E31DC73ED561C119A0012A3F5A
:1024E000A6F810111111813F495555555555C53F55
:1024F0000000E03F21F00041704700BF00000000F5
:10250000C1F30A5370B58C4604460D4616467BBB94
:10251000034621F0004C5CEA030328D0324B002232
:1025200000F0D8FA314B04469E420D461ADB8C4629
:10253000C1F30A53363B40F2FE723344934220DC2F
:10254000002B3EDC13F1350F2CDA4CF250339E4257
:1025500017DC05F0004343F0D27141F4B731244851
:1025600041F01F011CA3D3E9002300F0B3FA70BDB2
:1025700040F2FF7E7345DED102460B4600F044F880
:1025800070BD05F0004343F0FC4141F45F1141F49C
:10259000105113A3D3E90023164841F03C0100F089
:1025A00099FA70BD2CF0FF4C03F136012CF4E00CCD
:1025B0004CEA01550022204629460F4B00F08AFACA
:1025C00070BD2CF0FF4C2CF4E00C20464CEA03517B
:1025D00070BD00BFAFF3008059F3F8C21F6EA501B4
:1025E0009C7500883CE4377E00005043B03CFFFF00
:1025F00059F3F8C29C7500880000903C81F00041BE
:1026000002E000BF83F0004330B54FEA41044FEAD7
:10261000430594EA050F08BF90EA020F1FBF54EA72
:10262000000C55EA020C7FEA645C7FEA655C00F00E
:10263000E2804FEA5454D4EB5555B8BF6D420CDDDF
:102640002C4480EA020281EA030382EA000083EA62
:10265000010180EA020281EA0303362D88BF30BD02
:1026600011F0004F4FEA01314FF4801C4CEA113158
:1026700002D0404261EB410113F0004F4FEA0333B7
:102680004CEA133302D0524263EB430394EA050F42
:1026900000F0A780A4F10104D5F1200E0DDB02FAB1
:1026A0000EFC22FA05F2801841F1000103FA0EF245
:1026B000801843FA05F359410EE0A5F120050EF10B
:1026C000200E012A03FA0EFC28BF4CF0020C43FA3C
:1026D00005F3C01851EBE37101F0004507D54FF049
:1026E000000EDCF1000C7EEB00006EEB0101B1F599
:1026F000801F1BD3B1F5001F0CD349085FEA3000DF
:102700004FEA3C0C04F101044FEA445212F5800FE9
:1027100080F09A80BCF1004F08BF5FEA500C50F186
:10272000000041EB045141EA050130BD5FEA4C0C69
:10273000404141EB0101013C28BFB1F5801FE9D2C6
:1027400091F0000F04BF01460020B1FA81F308BFE9
:102750002033A3F10B03B3F120020CDA0C3208DDB5
:1027600002F1140CC2F10C0201FA0CF021FA02F190
:102770000CE002F11402D8BFC2F1200C01FA02F100
:1027800020FA0CFCDCBF41EA0C019040E41AA2BF25
:1027900001EB0451294330BD6FEA04041F3C1CDAED
:1027A0000C340EDC04F11404C4F1200220FA04F00D
:1027B00001FA02F340EA030021FA04F345EA0301B7
:1027C00030BDC4F10C04C4F1200220FA02F001FA79
:1027D00004F340EA0300294630BD21FA04F02946FB
:1027E00030BD94F0000F83F4801306BF81F4801194
:1027F0000134013D4EE77FEA645C18BF7FEA655C07
:1028000029D094EA050F08BF90EA020F05D054EAD8
:10281000000C04BF1946104630BD91EA030F1EBFDD
:102820000021002030BD5FEA545C05D140004941E1
:1028300028BF41F0004130BD14F580043CBF01F5D4
:10284000801130BD01F0004545F0FE4141F47001BA
:102850004FF0000030BD7FEA645C1ABF1946104695
:102860007FEA655C1CBF0B46024650EA013406BF96
:1028700052EA033591EA030F41F4002130BD00BF55
:1028800090F0000F04BF0021704730B54FF4806412
:1028900004F132044FF000054FF0000150E700BF93
:1028A00090F0000F04BF0021704730B54FF48064F2
:1028B00004F1320410F0004548BF40424FF00001DF
:1028C0003EE700BF42004FEAE2014FEA31014FEA22
:1028D00002701FBF12F07F4393F07F4F81F0605171
:1028E000704732F07F4208BF704793F07F4F04BFBC
:1028F00041F40021704730B54FF4607401F0004599
:1029000021F000411CE700BF50EA010208BF7047F8
:1029100030B54FF000050AE050EA010208BF7047E9
:1029200030B511F0004502D5404261EB41014FF452
:10293000806404F132045FEA915C3FF4D8AE4FF05A
:1029400003025FEADC0C18BF03325FEADC0C18BF3D
:10295000033202EBDC02C2F1200300FA03FC20FA8E
:1029600002F001FA03FE40EA0E0021FA02F11444DB
:10297000BDE600BF4FF0FF3C06E000BF4FF0010C8A
:1029800002E000BF4FF0010C4DF804CD4FEA410CBE
:102990007FEA6C5C4FEA430C18BF7FEA6C5C1BD08B
:1029A00001B050EA410C0CBF52EA430C91EA030F0C
:1029B00002BF90EA020F0020704710F1000F91EA69
:1029C000030F58BF994208BF90422CBFD8176FEA37
:1029D000E37040F0010070474FEA410C7FEA6C5C05
:1029E00002D150EA013C07D14FEA430C7FEA6C5C0C
:1029F000D6D152EA033CD3D05DF8040B704700BF38
:102A00008446104662468C461946634600E000BF85
:102A100001B5FFF7B7FF002848BF10F1000F01BD57
:102A20004DF808EDFFF7F4FF0CBF012000205DF822
:102A300008FB00BF4DF808EDFFF7EAFF34BF0120A7
:102A400000205DF808FB00BF4DF808EDFFF7E0FF40
:102A500094BF012000205DF808FB00BF4DF808ED91
:102A6000FFF7CEFF94BF012000205DF808FB00BFF8
:102A70004DF808EDFFF7C4FF34BF012000205DF8DA
:102A800008FB00BF4FEA410212F5001215D211D522
:102A90006FF47873B3EB625212D94FEAC12343F05B
:102AA000004343EA505311F0004F23FA02F018BFDD
:102AB000404270474FF00000704750EA013005D1A6
:102AC00011F0004008BF6FF0004070474FF0000069
:102AD000704700BF70B54FF0FF0C4CF4E06C1CEA7F
:102AE00011541DBF1CEA135594EA0C0F95EA0C0F04
:102AF00000F0DEF82C4481EA030621EA4C5123EA77
:102B00004C5350EA013518BF52EA033541F48011A5
:102B100043F4801338D0A0FB02CE4FF00005E1FB58
:102B200002E506F00042E0FB03E54FF00006E1FBA2
:102B300003569CF0000F18BF4EF0010EA4F1FF04E5
:102B4000B6F5007F64F5407404D25FEA4E0E6D4125
:102B500046EB060642EAC62141EA55514FEAC52036
:102B600040EA5E504FEACE2EB4F1FD0C88BFBCF5B2
:102B7000E06F1ED8BEF1004F08BF5FEA500E50F163
:102B8000000041EB045170BD06F0004646EA010129
:102B900040EA020081EA0301B4EB5C04C2BFD4EB5B
:102BA0000C0541EA045170BD41F480114FF0000E54
:102BB000013C00F3AB8014F1360FDEBF002001F0C2
:102BC000004170BDC4F10004203C35DA0C341BDC3C
:102BD00004F11404C4F1200500FA05F320FA04F00E
:102BE00001FA05F240EA020001F0004221F0004142
:102BF00010EBD37021FA04F642EB06015EEA430EB5
:102C000008BF20EAD37070BDC4F10C04C4F12005E4
:102C100000FA04F320FA05F001FA04F240EA020097
:102C200001F0004110EBD37041F100015EEA430E68
:102C300008BF20EAD37070BDC4F1200500FA05F288
:102C40004EEA020E20FA04F301FA05F243EA020307
:102C500021FA04F001F0004121FA04F220EA020016
:102C600000EBD3705EEA430E08BF20EAD37070BD5C
:102C700094F0000F0FD101F00046400041EB01013C
:102C800011F4801F08BF013CF7D041EA060195F01E
:102C9000000F18BF704703F00046520043EB0303D8
:102CA00013F4801F08BF013DF7D043EA06037047C5
:102CB00094EA0C0F0CEA135518BF95EA0C0F0CD0D0
:102CC00050EA410618BF52EA4306D1D181EA030116
:102CD00001F000414FF0000070BD50EA410606BF10
:102CE0001046194652EA430619D094EA0C0F02D155
:102CF00050EA013613D195EA0C0F05D152EA03369A
:102D00001CBF104619460AD181EA030101F00041B7
:102D100041F0FE4141F470014FF0000070BD41F000
:102D2000FE4141F4780170BD70B54FF0FF0C4CF4DA
:102D3000E06C1CEA11541DBF1CEA135594EA0C0FF9
:102D400095EA0C0F00F0A7F8A4EB050481EA030E46
:102D500052EA03354FEA013100F088804FEA03332D
:102D60004FF0805545EA131343EA12634FEA0222FB
:102D700045EA111545EA10654FEA00260EF00041BC
:102D80009D4208BF964244F1FD0404F5407402D20E
:102D90005B084FEA3202B61A65EB03055B084FEA9F
:102DA00032024FF480104FF4002CB6EB020E75EB9C
:102DB000030E22BFB61A754640EA0C005B084FEAC4
:102DC0003202B6EB020E75EB030E22BFB61A754641
:102DD00040EA5C005B084FEA3202B6EB020E75EB8C
:102DE000030E22BFB61A754640EA9C005B084FEA04
:102DF0003202B6EB020E75EB030E22BFB61A754611
:102E000040EADC0055EA060E18D04FEA051545EAFF
:102E100016754FEA06164FEAC30343EA52734FEAA8
:102E2000C2025FEA1C1CC0D111F4801F0BD141EA21
:102E300000014FF000004FF0004CB6E711F4801F86
:102E400004BF01430020B4F1FD0C88BFBCF5E06F66
:102E50003FF6AFAEB5EB030C04BFB6EB020C5FEA76
:102E6000500C50F1000041EB045170BD0EF0004ECB
:102E70004EEA113114EB5C04C2BFD4EB0C0541EAFD
:102E8000045170BD41F480114FF0000E013C90E6FA
:102E900045EA060E8DE60CEA135594EA0C0F08BFBE
:102EA00095EA0C0F3FF43BAF94EA0C0F0AD150EABD
:102EB00001347FF434AF95EA0C0F7FF425AF104650
:102EC00019462CE795EA0C0F06D152EA03353FF478
:102ED000FDAE1046194622E750EA410618BF52EAF5
:102EE00043067FF4C5AE50EA41047FF40DAF52EAC9
:102EF00043057FF4EBAE12E74A0011D212F500123F
:102F000011D20DD56FF47873B3EB62520ED44FEA41
:102F1000C12343F0004343EA505323FA02F07047C1
:102F20004FF00000704750EA013002D14FF0FF30FF
:102F300070474FF000007047F8B500BFF8BC08BC00
:102F40009E467047F8B500BFF8BC08BC9E46704767
:102F5000010000000100000001010100010001006A
:102F60000101000000320019640064640064006420
:102F7000641414641414640064646400196400002C
:102F800032000000FB21F93FFB2109407CD91240AF
:102F9000FB2119407A6A1F407CD92240BBFD2540A5
:102FA000FB2129403A462C407A6A2F405C47314049
:102FB0007CD932409C6B3440BBFD3540DB8F3740C1
:102FC000FB2139401BB43A403A463C405AD83D4078
:102FD0007A6A3F404C7E40405C4741406C10424022
:102FE0007CD942408CA243409C6B4440AC34454069
:102FF000BBFD4540CBC64640DB8F4740EB584840C1
:10300000FB21494083F9A200444E6E00FC291500C3
:10301000D1572700DD34F50062DBC0003C999500F4
:10302000419043006351FE00BBDEAB00B761C500B9
:103030003A6E2400D24D42004906E00009EA2E0013
:103040001C92D100EB1DFE0029B11C00E83EA70038
:10305000F535820044BB2E009CE98400B426700044
:10306000417E5F00D6913900538339009CF43900CA
:103070008B5F840028F9BD00F81F3B00DEFF97003E
:103080000F980500112FEF000A5A8B006D1F6D007D
:10309000CF7E360009CB2700464FB7009E663F0023
:1030A0002DEA5F00BA277500E5EBC7003D7BF10014
:1030B000F739070092528A00FB6BEA001FB15F00EC
:1030C000085D8D00300356007BFC4600F0AB6B00C2
:1030D00020BCCF0036F49A00E3A91D005E61910088
:1030E000081BE60085996500A0145F008D4068000C
:1030F00080D8FF0027734D0006063100CA56150020
:10310000C9A873007BE260006B8CC0000000000067
:1031100002000000030000000400000006000000A0
:1031200000000040FB21F93F000000002D44743EE8
:10313000000000809846F83C0000006051CC783BCD
:1031400000000080831BF0390000004020257A3801
:10315000000000802282E336000000001DF3693584
:04316000000000006B
:1031640064010000000000001F85EB51B81ED53F2C
:103174001F85EB51B81EE53F1F85EB51B81ED53FA7
:103184001F85EB51B81EE53F04000000290100082B
:04319400010100082D
:040000050800128954
:00000001FF
